:10000000A6C0000029C70000BFC00000BDC000009E
:10001000BBC00000B9C00000B7C00000B5C0000000
:10002000B3C00000B1C00000AFC00000CEC60000E9
:10003000ABC00000A9C00000A7C00000A5C0000020
:10004000A3C00000A1C000009FC000009DC0000030
:100050009BC0000000407A10F35A00A0724E1809AD
:100060000010A5D4E80000E87648170000E40B541F
:10007000020000CA9A3B000000E1F50500008096EE
:100080009800000040420F000000A0860100000020
:10009000102700000000E8030000000064000000DA
:1000A00000000A00000000000100000000002C76A3
:1000B000D888DC674F0823DFC1DFAE59E1B1B796BE
:1000C000E5E3E453C63AE651997696E8E6C284261B
:1000D000EB898C9B62ED407C6FFCEFBC9C9F40F2F7
:1000E000BAA56FA5F490055A2AF75C936B6CF96773
:1000F0006DC11BFCE0E40D47FEF520E6B500D0ED38
:10010000902E0300943577050080841E080000209F
:100110004E0A000000C80C333333330F986E12833D
:100120001141EF8D2114893BE65516CFFEE6DB1811
:10013000D1844B381BF77C1D901DA4BBE4242032D6
:1001400084725E228100C9F124ECA1E53D271124CF
:100150001FBECFE5D8E0DEBFCDBF10E0A0E6B0E027
:10016000E4ECF7E102C005900D92AA3EB107D9F781
:1001700020E0AAEEB0E001C01D92AE3FB207E1F769
:100180000E94CC080C94E00B3BCFA4E0B0E0EBEC79
:10019000F0E00C9437097C016A01FC018081823017
:1001A00008F44AC1FB019081923008F442C18430C6
:1001B00079F4943009F040C1F7019181FB0181810C
:1001C000981709F439C1A4E6EA2EA0E0FA2E34C14A
:1001D000943009F42EC1923091F4823009F02CC190
:1001E00088E0F701DA0101900D928A95E1F7FB01B1
:1001F0008181F70191818923FA0181831CC18230B9
:1002000009F417C1F70182819381FB01A281B381B7
:10021000F7010481158126813781FB018480958057
:10022000A680B780FC01EA1BFB0BAF01F7FF04C0FF
:10023000442755274E1B5F0B403251050CF074C00C
:100240001E161F06B4F524013501042E04C0769451
:100250006794579447940A94D2F749825A826B82E2
:100260007C82412C512C3201439404C0440C551C17
:10027000661C771C4A95D2F741E0441A5108610880
:100280007108482059206A207B20812C912C540130
:10029000839445284628472819F4812C912C540131
:1002A00049805A806B807C8084289528A628B728AE
:1002B00046C0EF2B09F443C0840F951F2801390174
:1002C000042E04C076946794579447940A94D2F706
:1002D00049825A826B827C82412C512C3201439498
:1002E00004C0440C551C661C771C4A95D2F741E0AB
:1002F000441A510861087108402251226222732277
:1003000001E010E020E030E045284628472819F4B5
:1003100000E010E0980149805A806B807C800429BD
:100320001529262937290BC0A817B90724F4812CD1
:10033000912C540104C0CD0100E010E09801F701B8
:100340004181FB015181451709F446C0442349F01E
:1003500024013501401A510A620A730A930182018D
:1003600004C0081919092A093B0937FD05C0F6011F
:100370001182938382830CC041E0F6014183938311
:10038000828330952095109501951F4F2F4F3F4F39
:1003900004831583268337830EC0880F991FAA1FF5
:1003A000BB1FF60184839583A683B78382819381E3
:1003B000019793838283F60184819581A681B78119
:1003C000AC01BD0141505109610971094F3F5F4FB7
:1003D0006F4F7F4310F30CC0F601418393838283F8
:1003E000080D191D2A1D3B1D0483158326833783A1
:1003F00083E0F6018083448155816681778177FFB0
:100400001AC0DB01CA0181709927AA27BB277695FC
:10041000679557954795842B952BA62BB72B8483EF
:100420009583A683B7838281938101969383828388
:1004300002C07B0101C07601C7012496E0E133C709
:10044000A0E2B0E0E5E2F2E020C76D8F7E8F8F8FF3
:1004500098A3298F3A8F4B8F5C8FBE016F5E7F4FC1
:10046000CE014D964BD3BE01675F7F4FCE014996BB
:1004700045D3AE014F5F5F4FBE01675F7F4FCE0137
:10048000419683DE71D2A096E2E01BC7A0E2B0E005
:10049000EBE4F2E0FAC66D8F7E8F8F8F98A3298FE1
:1004A0003A8F4B8F5C8FBE016F5E7F4FCE014D96B2
:1004B00025D3BE01675F7F4FCE0149961FD38A8542
:1004C00091E089278A87AE014F5F5F4FBE01675F6A
:1004D0007F4FCE01419659DE47D2A096E2E0F1C6A9
:1004E000A0E2B0E0E5E7F2E0C2C66D8F7E8F8F8FAD
:1004F00098A3298F3A8F4B8F5C8FBE016F5E7F4F21
:10050000CE014D96FBD2BE01675F7F4FCE0149966B
:10051000F5D29989923008F412C08985823008F4A6
:100520001AC0943021F4823009F4B4C008C0843079
:1005300021F4923009F4AEC00EC0923051F481E043
:100540002A899A85291301C080E08A8BCE014196C1
:10055000A3C0823051F481E02A899A85291301C011
:1005600080E08A87CE01099697C08D889E88AF88E3
:10057000B88C0D851E852F853889E0E2F0E080E09B
:1005800090E0DC01C12CD12C760140E050E0BA01B2
:1005900080FE18C0400F511F621F731F8C0D9D1DE0
:1005A000AE1DBF1D412C512C320143944017510701
:1005B0006207730718F0412C512C3201840D951DF0
:1005C000A61DB71DCC0CDD1CEE1CFF1C37FF02C0A6
:1005D0006894C0F8000F111F221F331FB694A79410
:1005E000979487943197A1F62B893C89EB85FC85FC
:1005F0002E0F3F1F2E5F3F4F3C832B8321E0EA8964
:100600003A85E31301C020E02A83EB81FC810CC012
:1006100080FF05C076956795579547957068B695A4
:10062000A795979587953196B7FDF2CF9F010CC09E
:10063000880F991FAA1FBB1F77FD8160440F551FAC
:10064000661F771F215031090097A105E0E4BE071E
:1006500078F32B833C838C019D010F771127222790
:100660003327003411052105310559F487FD09C0F0
:10067000452B462B472B29F0805C9F4FAF4FBF4F38
:1006800080788D839E83AF83B88783E08983CE0192
:10069000019602C084E690E067D1A096E0E103C62F
:1006A000A8E1B0E0E5E5F3E0EAC56D8B7E8B8F8BCA
:1006B000988F298B3A8B4B8B5C8BBE01675F7F4F8A
:1006C000CE0145961BD2BE016F5F7F4FCE01419692
:1006D00015D29985923008F475C08981823008F46A
:1006E00074C02A853A8123272A87943011F09230EA
:1006F00019F4981367C06CC0843039F41D861E86C7
:100700001F86188A1C861B8604C0823029F484E068
:100710008987CE0109965EC08B859C852B813C81A3
:10072000821B930B9C878B874D855E856F857889AF
:10073000CD80DE80EF80F8844C155D056E057F0569
:1007400038F4440F551F661F771F01979C878B87CE
:10075000EFE1F0E000E010E020E030E480E090E045
:10076000DC014C155D056E057F0540F0802B912B5B
:10077000A22BB32B4C195D096E097F09369527957D
:1007800017950795440F551F661F771F319749F737
:100790008C019D010F771127222733270034110583
:1007A0002105310559F487FD09C0452B462B472B00
:1007B00029F0805C9F4FAF4FBF4F80788D879E8719
:1007C000AF87B88BCE01099605C0CE01019602C055
:1007D00084E690E0C9D06896E8E06DC5A8E1B0E095
:1007E000E3EFF3E052C56D8B7E8B8F8B988F298B57
:1007F0003A8B4B8B5C8BBE01675F7F4FCE0145967A
:100800007DD1BE016F5F7F4FCE01419677D1898543
:10081000823050F08981823038F0BE016F5F7F4FA7
:10082000CE010996DAD101C08FEF6896E2E049C5A2
:10083000A8E1B0E0EDE1F4E028C56D8B7E8B8F8BF5
:10084000988F298B3A8B4B8B5C8BBE01675F7F4FF8
:10085000CE01459653D1BE016F5F7F4FCE014196C9
:100860004DD18985823050F08981823038F0BE01C7
:100870006F5F7F4FCE010996B0D101C081E06896CD
:10088000E2E01FC5A8E0B0E0E7E4F4E0F8C48B01C3
:100890009C011A82611571058105910519F482E0A8
:1008A00089835CC083E089834EE150E05C834B83A5
:1008B000C901B801C1D4019797FF39C0EE27FF27BE
:1008C000E81BF90B41E050E060E070E00E2E04C040
:1008D000440F551F661F771F0A94D2F741505109E4
:1008E000610971094023512362237323C12CD12C48
:1008F0007601C394452B462B472B19F4C12CD12CE0
:10090000760104C03695279517950795EA95D2F795
:100910000C291D292E293F290D831E832F833887FB
:100920002EE130E0281B390B3C832B8317C0009746
:1009300029F40D831E832F83388710C0082E04C02E
:10094000000F111F221F331F0A94D2F70D831E833D
:100950002F833887481B590B5C834B83CE0101964C
:1009600003D02896E8E0A7C40F931F93CF93DF939B
:10097000DC0114964D915D916D917C9117971196C4
:10098000EC9111978C91823020F460618FEF90E0B0
:10099000A6C0843009F49EC0823009F495C0411588
:1009A00051056105710509F492C012962D913C9193
:1009B000139722388FEF38070CF058C0C2E8DFEFEA
:1009C000C21BD30BCA31D1056CF58A019B010C2ED9
:1009D00004C036952795179507950A94D2F781E0BC
:1009E00090E0A0E0B0E00C2E04C0880F991FAA1F71
:1009F000BB1F0A94D2F70197A109B109842395235B
:100A0000A623B72341E050E060E070E0892B8A2BF9
:100A10008B2B19F440E050E0BA01402B512B622B94
:100A2000732B03C040E050E0BA01DB01CA018F77AD
:100A30009927AA27BB2780349105A105B10539F470
:100A400047FF09C0405C5F4F6F4F7F4F04C0415C60
:100A50005F4F6F4F7F4F81E090E041155105610579
:100A600020E4720748F580E090E026C02038310588
:100A70008CF5DB01CA018F779927AA27BB27803421
:100A80009105A105B10539F447FF09C0405C5F4FEE
:100A90006F4F7F4F04C0415C5F4F6F4F7F4F77FDBB
:100AA00004C0C90181589F4F07C076956795579537
:100AB0004795C90180589F4F97E076956795579560
:100AC00047959A95D1F70BC080E090E005C080E093
:100AD00090E005C08FEF90E040E050E0BA01982F21
:100AE0009695E0FB97F9362F80FB37F9642F752F29
:100AF000832FDF91CF911F910F910895CF92DF92B5
:100B0000EF92DC01FB01CC901196DC9011971296CC
:100B10008C9112973FE7E32EE8226E2DA60170E03C
:100B2000982F991F9927991F13962C91822F880F20
:100B3000892B90E027FB222720F92183009729F5B4
:100B4000411551056105710511F482E027C082E865
:100B50009FEF9383828327E0440F551F661F771F03
:100B60002A95D1F783E0808309C0440F551F661F83
:100B7000771F828193810197938382834115510569
:100B8000610580E4780788F320C08F3F910579F4F0
:100B9000411551056105710519F484E0808319C080
:100BA000E4FE03C081E0808310C010820EC08F5726
:100BB00091099383828383E0808387E0440F551FEC
:100BC000661F771F8A95D1F77064448355836683C7
:100BD0007783EF90DF90CF900895CF93FC01DB01F6
:100BE0009081923008F452C08C91823008F44EC04B
:100BF000943071F4843039F411962C9130E0818175
:100C0000281B310948C08181882309F43FC03BC0BB
:100C1000843029F411968C91811138C034C09230FF
:100C200019F48230B9F735C0823069F3C181119669
:100C30008C911197C8131DC02281338112968D911A
:100C40009C911397821793070CF413C02817390748
:100C50000CF417C0448155816681778114968D917B
:100C60009D910D90BC91A02D84179507A607B707FD
:100C700018F4C11108C00AC0481759076A077B0752
:100C800040F4C11103C02FEF3FEF05C021E030E079
:100C900002C020E030E0C901CF9108950895009787
:100CA00041F0EFE9FFE03197F1F700C00000019754
:100CB000C1F7089513BE08951092F9001092F8003C
:100CC0001092FD001092FC001092FB001092FA00AE
:100CD00012BE82E083BF08955D9BFECF8CB908955C
:100CE0000F931F93CF93DF9300D0CDB7DEB78C0166
:100CF0001A821982E981FA81E80FF91F818188231C
:100D000091F0E981FA81E00FF11F8081E5DF8981AF
:100D10009A8101969A838983E981FA81E00FF11F14
:100D200081818111EECF0F900F90DF91CF911F91B4
:100D30000F91089588E18AB987E689B910BC13BE7E
:100D400089B7816089BF8BB780648BBF85B78160AD
:100D500085BF80E487B987B187B93D9A84E086B9B9
:100D6000379A0895369A3699FECF85B10895CF9374
:100D7000DF93EC018091600090916100C817D90762
:100D8000D1F0C130D10521F0C230D105B9F407C08E
:100D900080E487B987B1856087B93D9A04C080E453
:100DA00087B9389A3D9ADEDFD0936100C093600026
:100DB00021E030E005C021E030E002C020E030E07A
:100DC000822F932FDF91CF9108951F920F920FB62C
:100DD0000F9211242F938F939F938091FA009091FB
:100DE000FB0040969093FB008093FA008091FA00FC
:100DF0009091FB00883E934038F18091FC009091E7
:100E0000FD0001969093FD008093FC008091FA0014
:100E10009091FB00885E93409093FB008093FA00D2
:100E20008091FC009091FD00883E934068F0809195
:100E3000F8009091F90001969093F9008093F800E2
:100E40001092FD001092FC009F918F912F910F90B6
:100E50000FBE0F901F9018951F920F920FB60F9212
:100E600011244F925F926F927F928F929F92AF92D6
:100E7000BF92CF92DF92EF92FF922F933F934F93C7
:100E80005F936F937F938F939F93AF93BF93EF93F2
:100E9000FF93CF93DF93CDB7DEB72697DEBFCDBFED
:100EA0008091620090916300892B09F069C002DF94
:100EB00081E090E090936300809362001E821D8227
:100EC0006091FA007091FB00AD80BE8080E090E000
:100ED000D9DC6B017C01B50180E090E0D3DC9B01A3
:100EE000AC01C701B601ACDA462F572F682F792F16
:100EF00049835A836B837C836091F8007091F90079
:100F0000E090FC00F090FD0089809A80AB80BC806E
:100F100080E090E0B7DC2B013C01B70180E090E07D
:100F2000B1DC20E030E04AE754E4BADB9B01AC01DD
:100F3000C301B20185DA6B017C0120E034E244E7B1
:100F400059E4C501B401ACDB9B01AC01C701B6019A
:100F500077DA20E030E045E253E4C2DA20E030E026
:100F600040E051E4BDDA6093F2007093F3008093A7
:100F7000F4009093F5001092F7001092F60005C06F
:100F80009BDE109263001092620026960FB6F894D2
:100F9000DEBF0FBECDBFDF91CF91FF91EF91BF912B
:100FA000AF919F918F917F916F915F914F913F9101
:100FB0002F91FF90EF90DF90CF90BF90AF909F90D8
:100FC0008F907F906F905F904F900F900FBE0F901B
:100FD0001F9018958091F6009091F700892BA9F445
:100FE00081E090E09093F7008093F6009093630087
:100FF00080936200DC9A8FE891E00197F1F700C0DE
:101000000000DC9821E030E002C020E030E0822FD8
:10101000932F08950F931F93CF93DF9381E090E078
:10102000A6DEA0DE682F70E080E090E02BDC20E000
:1010300030E040EA50E454DA20E030E040E85BE39E
:101040004FDA062F172FD82FC92F2AE037ED43E2AA
:101050005CE3EEDB88230CF439C023E333E343E3A2
:101060005FE3602F712F8D2F9C2FB8DB18167CF457
:10107000202F312F4D2F5C2F65EE70ED81E291E432
:101080000FDB2AEE34E044E75EE3DAD90EC0202F0E
:10109000312F4D2F5C2F66EE7EEA87E591E400DB71
:1010A00027ED34E34FEE5CE3F1D9382F292F862F5B
:1010B000972FA32FB22F8093EE009093EF00A09371
:1010C000F000B093F10021E030E002C020E030E019
:1010D000822F932FDF91CF911F910F91089582E07E
:1010E00090E045DE3FDE682F70E080E090E0CADBF4
:1010F00020E030E040EA50E4F3D920E030E040E87E
:101100005BE3EED920E030E040E250E4BFD920E0DC
:1011100030E040EA53E4E4D96093EA007093EB00D6
:101120008093EC009093ED0081E090E00895AF9201
:10113000BF92CF92DF92EF92FF920F931F93CF93C4
:10114000DF93CDB7DEB72A970FB6F894DEBF0FBE98
:10115000CDBF6A017B015901C3DD8E010F5F1F4FB7
:1011600023E04AE0C701B601B7D0C801B9DDC50127
:10117000B7DD8DE0B1DD2A960FB6F894DEBF0FBE65
:10118000CDBFDF91CF911F910F91FF90EF90DF9036
:10119000CF90BF90AF90089581DDCCDD11BA81E191
:1011A0008ABB88EE93E07BDD1BBA789488EE93E0EF
:1011B00076DD10DF892B31F48CE690E091DD8DE057
:1011C0008BDD0DC04091F2005091F3006091F4006E
:1011D0007091F50020E830E088E890E0A8DF1ADFA1
:1011E000892B31F486E990E07BDD8DE075DD0DC063
:1011F0004091EE005091EF006091F0007091F1008D
:101200002AEA30E08FEA90E092DF69DF892B31F43F
:101210008FEB90E065DD8DE05FDDC8CF4091EA00A7
:101220005091EB006091EC007091ED0024ED30E006
:101230008CED90E07CDFBACF06D084FF0895CB011F
:1012400002D0805F0895AA27992329F4A85F982BDC
:1012500011F480E10895903118F4AD5F9295A39553
:10126000990FE8F78A2F992708952F923F924F926E
:101270005F926F927F928F929F92AF92BF92CF9226
:10128000DF92EF92FF920F931F93CF93DF93CDB72F
:10129000DEB7CA1BDB0B0FB6F894DEBF0FBECDBFA7
:1012A00009942A88398848885F846E847D848C8478
:1012B0009B84AA84B984C884DF80EE80FD800C8181
:1012C0001B81AA81B981CE0FD11D0FB6F894DEBF64
:1012D0000FBECDBFED010895EF920F931F93CF93F3
:1012E000C02F47FF02C034E101C034E0E42FFF27E4
:1012F000E7FDF095F7FF03C0F195E195F109E32EC5
:10130000022F2E2F4C2F512F07D08C2F912FCF91A2
:101310001F910F91EF9008956F927F929F92AF92DD
:10132000BF92CF92DF92EF92FF920F931F93CF93D2
:10133000DF93CDB7DEB729970FB6F894DEBF0FBEA7
:10134000CDBF6A01B22E102F0C3318F4F02EF39497
:1013500002C05CE3F52E0F2D27E0AE014F5F5F4F1B
:1013600057D17981272F2970213031F0E1FC06C057
:10137000E0FE06C060E205C06DE203C06BE201C0A2
:1013800060E073FF3DC0662311F084E001C083E09C
:101390008B1510F4B81A01C0B12CE4FC0BC08B2DD6
:1013A000F60190E202C0919381508111FCCFCB0CE9
:1013B000D11CB12C662319F0D6016D936D01E2FEAC
:1013C0000AC08EE4F601808391E491838283F3E086
:1013D000CF0ED11C0CC08EE6D6018C9391E61196EF
:1013E0009C93119712968C93B3E0CB0ED11C8B2D4E
:1013F000F60190E202C0919381508111FCCF40C070
:1014000072FF45C0662311F084E001C083E08B15B4
:1014100010F4B81A01C0B12CE4FC0BC08B2DF601FE
:1014200090E202C0919381508111FCCFCB0CD11C72
:10143000B12C662319F0F60161936F01E2FE0EC034
:1014400089E4D6018C938EE411968C93119786E4EF
:1014500012968C93B3E0CB0ED11C0AC089E6F6013C
:1014600080838EE6818386E68283F3E0CF0ED11CF3
:101470008B2DF60190E202C0919381508111FCCF37
:10148000F601EB0DF11D10822EEF3FEFACC0A1E095
:10149000611101C0A0E04A2F50E01816190624F48B
:1014A0009C012F5F3F4F02C021E030E0240F351F29
:1014B000112329F0412F50E04F5F5F4F02C040E001
:1014C00050E0420F531F2B2D30E04217530714F406
:1014D000B41A01C0B12C3E2D3071E4FC0DC0E3FC08
:1014E0000BC02B2DF60140E202C041932150211187
:1014F000FCCFCB0CD11CB12CAA2319F0D6016D93D3
:101500006D0131110BC02B2DF60130E302C0319378
:1015100021502111FCCFCB0CD11CB12CF80E0A812B
:1015200040E1A42EA72274FF03C0013309F4FA940A
:101530001F142CF42F2D293018F028E001C021E0D1
:10154000AC0197FF02C040E050E060E070E03EE296
:10155000932EFC01E21BF1099F01DC01A41BB50BDA
:10156000FE013196EA0FFB1FA12FB0E0662477241D
:101570006A1A7B0A4F3F1FEF510719F4D6019D925B
:101580006D018417950754F0241735073CF47F014B
:10159000E60EF71ED70111961C9101C010E34150D1
:1015A00051096F5F7F4F4615570524F0D6011D93F3
:1015B0006D01E0CF4817590739F4063320F405339D
:1015C00019F4A11001C011E3F60111938B2DDF0175
:1015D00090E202C09D9381508111FCCFEB0DF11D73
:1015E000108220E030E0C90129960FB6F894DEBFE2
:1015F0000FBECDBFDF91CF911F910F91FF90EF9064
:10160000DF90CF90BF90AF909F907F906F900895A4
:10161000283008F027E03327DA01990F311D87FDC4
:10162000916000966105710539F432602E5F3D933B
:1016300030E32A95E1F708959F3F30F08038710537
:10164000610509F03C5F3C5F3D93913008F0806894
:10165000911DDF93CF931F930F93FF92EF92192F5A
:10166000987F9695E92F96959695E90FFF27E25575
:10167000FF4F99273327EE24FF24A701E7010590A8
:101680000894079428F4360FE71EF81E491F511DD1
:10169000660F771F881F991F0694A1F7059007947E
:1016A00028F4E70EF81E491F561FC11D770F881F2B
:1016B000991F661F0694A1F70590079428F4F80E69
:1016C000491F561FC71FD11D880F991F661F771FFF
:1016D0000694A1F70590079420F4490F561FC71FE1
:1016E000D81F990F661F771F881F0694A9F784914A
:1016F0001095177041F0D695C79557954795F79473
:10170000E7941A95C1F7E4E5F0E068941590159117
:1017100035916591959105907FE27395E118F10AF5
:10172000430B560BC90BD009C0F7E10CF11E431F48
:10173000561FC91FD01D7EF4703311F48A95E6CF71
:10174000E894015030F0080F0AF40027021708F45B
:10175000202F2395022F7A3328F079E37D932A9561
:10176000E9F710C07D932A9589F6069497956795B9
:10177000379517951794E118F10A430B560BC90BCF
:10178000D00998F023957E9173957A3308F070E331
:101790007C932013B8F77E9170617D9330F0839530
:1017A00071E37D9370E32A95E1F71124EF90FF90A8
:1017B0000F911F91CF91DF91992787FD9095089503
:0417C000F894FFCFCB
:1017C400010001000000000000000000556C7320BF
:1017D4004D657373756E67206661696C656421007D
:1017E400204D657465722000556C74726173636872
:1017F400616C6C3A2000547269204D657373756E88
:1018040067206661696C6564210020636D20005463
:101814007269616E67756C6174696F6E3A20004815
:10182400616C6C204D657373756E67206661696CBD
:1018340065642100204761757373200048616C6CF6
:0A18440073656E736F723A200000A6
:00000001FF
